{
  "_format": "hh-sol-artifact-1",
  "contractName": "Posts",
  "sourceName": "contracts/Posts.sol",
  "abi": [
    {
      "anonymous": false,
      "inputs": [
        {
          "indexed": false,
          "internalType": "string",
          "name": "msg",
          "type": "string"
        }
      ],
      "name": "log",
      "type": "event"
    },
    {
      "inputs": [
        {
          "internalType": "string",
          "name": "title",
          "type": "string"
        },
        {
          "internalType": "string",
          "name": "description",
          "type": "string"
        },
        {
          "internalType": "string",
          "name": "date",
          "type": "string"
        }
      ],
      "name": "createPost",
      "outputs": [],
      "stateMutability": "payable",
      "type": "function"
    },
    {
      "inputs": [],
      "name": "getPosts",
      "outputs": [
        {
          "components": [
            {
              "internalType": "string",
              "name": "date",
              "type": "string"
            },
            {
              "internalType": "string",
              "name": "title",
              "type": "string"
            },
            {
              "internalType": "string",
              "name": "description",
              "type": "string"
            }
          ],
          "internalType": "struct Posts.Post[]",
          "name": "",
          "type": "tuple[]"
        }
      ],
      "stateMutability": "view",
      "type": "function"
    },
    {
      "inputs": [
        {
          "internalType": "uint256",
          "name": "",
          "type": "uint256"
        }
      ],
      "name": "posts",
      "outputs": [
        {
          "internalType": "string",
          "name": "date",
          "type": "string"
        },
        {
          "internalType": "string",
          "name": "title",
          "type": "string"
        },
        {
          "internalType": "string",
          "name": "description",
          "type": "string"
        }
      ],
      "stateMutability": "view",
      "type": "function"
    }
  ],
  "bytecode": "0x608060405234801561001057600080fd5b50610da5806100206000396000f3fe6080604052600436106100345760003560e01c80630b1e7f831461003957806341f3004a14610078578063e8a4a1eb146100a3575b600080fd5b34801561004557600080fd5b50610060600480360381019061005b91906105b4565b6100bf565b60405161006f93929190610671565b60405180910390f35b34801561008457600080fd5b5061008d610291565b60405161009a9190610827565b60405180910390f35b6100bd60048036038101906100b8919061097e565b6104a6565b005b600081815481106100cf57600080fd5b90600052602060002090600302016000915090508060000180546100f290610a54565b80601f016020809104026020016040519081016040528092919081815260200182805461011e90610a54565b801561016b5780601f106101405761010080835404028352916020019161016b565b820191906000526020600020905b81548152906001019060200180831161014e57829003601f168201915b50505050509080600101805461018090610a54565b80601f01602080910402602001604051908101604052809291908181526020018280546101ac90610a54565b80156101f95780601f106101ce576101008083540402835291602001916101f9565b820191906000526020600020905b8154815290600101906020018083116101dc57829003601f168201915b50505050509080600201805461020e90610a54565b80601f016020809104026020016040519081016040528092919081815260200182805461023a90610a54565b80156102875780601f1061025c57610100808354040283529160200191610287565b820191906000526020600020905b81548152906001019060200180831161026a57829003601f168201915b5050505050905083565b60606000805480602002602001604051908101604052809291908181526020016000905b8282101561049d57838290600052602060002090600302016040518060600160405290816000820180546102e890610a54565b80601f016020809104026020016040519081016040528092919081815260200182805461031490610a54565b80156103615780601f1061033657610100808354040283529160200191610361565b820191906000526020600020905b81548152906001019060200180831161034457829003601f168201915b5050505050815260200160018201805461037a90610a54565b80601f01602080910402602001604051908101604052809291908181526020018280546103a690610a54565b80156103f35780601f106103c8576101008083540402835291602001916103f3565b820191906000526020600020905b8154815290600101906020018083116103d657829003601f168201915b5050505050815260200160028201805461040c90610a54565b80601f016020809104026020016040519081016040528092919081815260200182805461043890610a54565b80156104855780601f1061045a57610100808354040283529160200191610485565b820191906000526020600020905b81548152906001019060200180831161046857829003601f168201915b505050505081525050815260200190600101906102b5565b50505050905090565b6000604051806060016040528083815260200185815260200184815250908060018154018082558091505060019003906000526020600020906003020160009091909190915060008201518160000190816105019190610c31565b5060208201518160010190816105179190610c31565b50604082015181600201908161052d9190610c31565b5050507f41304facd9323d75b11bcdd609cb38effffdb05710f7caf0e9b16c6d9d709f5060405161055d90610d4f565b60405180910390a1505050565b6000604051905090565b600080fd5b600080fd5b6000819050919050565b6105918161057e565b811461059c57600080fd5b50565b6000813590506105ae81610588565b92915050565b6000602082840312156105ca576105c9610574565b5b60006105d88482850161059f565b91505092915050565b600081519050919050565b600082825260208201905092915050565b60005b8381101561061b578082015181840152602081019050610600565b60008484015250505050565b6000601f19601f8301169050919050565b6000610643826105e1565b61064d81856105ec565b935061065d8185602086016105fd565b61066681610627565b840191505092915050565b6000606082019050818103600083015261068b8186610638565b9050818103602083015261069f8185610638565b905081810360408301526106b38184610638565b9050949350505050565b600081519050919050565b600082825260208201905092915050565b6000819050602082019050919050565b600082825260208201905092915050565b6000610705826105e1565b61070f81856106e9565b935061071f8185602086016105fd565b61072881610627565b840191505092915050565b6000606083016000830151848203600086015261075082826106fa565b9150506020830151848203602086015261076a82826106fa565b9150506040830151848203604086015261078482826106fa565b9150508091505092915050565b600061079d8383610733565b905092915050565b6000602082019050919050565b60006107bd826106bd565b6107c781856106c8565b9350836020820285016107d9856106d9565b8060005b8581101561081557848403895281516107f68582610791565b9450610801836107a5565b925060208a019950506001810190506107dd565b50829750879550505050505092915050565b6000602082019050818103600083015261084181846107b2565b905092915050565b600080fd5b600080fd5b7f4e487b7100000000000000000000000000000000000000000000000000000000600052604160045260246000fd5b61088b82610627565b810181811067ffffffffffffffff821117156108aa576108a9610853565b5b80604052505050565b60006108bd61056a565b90506108c98282610882565b919050565b600067ffffffffffffffff8211156108e9576108e8610853565b5b6108f282610627565b9050602081019050919050565b82818337600083830152505050565b600061092161091c846108ce565b6108b3565b90508281526020810184848401111561093d5761093c61084e565b5b6109488482856108ff565b509392505050565b600082601f83011261096557610964610849565b5b813561097584826020860161090e565b91505092915050565b60008060006060848603121561099757610996610574565b5b600084013567ffffffffffffffff8111156109b5576109b4610579565b5b6109c186828701610950565b935050602084013567ffffffffffffffff8111156109e2576109e1610579565b5b6109ee86828701610950565b925050604084013567ffffffffffffffff811115610a0f57610a0e610579565b5b610a1b86828701610950565b9150509250925092565b7f4e487b7100000000000000000000000000000000000000000000000000000000600052602260045260246000fd5b60006002820490506001821680610a6c57607f821691505b602082108103610a7f57610a7e610a25565b5b50919050565b60008190508160005260206000209050919050565b60006020601f8301049050919050565b600082821b905092915050565b600060088302610ae77fffffffffffffffffffffffffffffffffffffffffffffffffffffffffffffffff82610aaa565b610af18683610aaa565b95508019841693508086168417925050509392505050565b6000819050919050565b6000610b2e610b29610b248461057e565b610b09565b61057e565b9050919050565b6000819050919050565b610b4883610b13565b610b5c610b5482610b35565b848454610ab7565b825550505050565b600090565b610b71610b64565b610b7c818484610b3f565b505050565b5b81811015610ba057610b95600082610b69565b600181019050610b82565b5050565b601f821115610be557610bb681610a85565b610bbf84610a9a565b81016020851015610bce578190505b610be2610bda85610a9a565b830182610b81565b50505b505050565b600082821c905092915050565b6000610c0860001984600802610bea565b1980831691505092915050565b6000610c218383610bf7565b9150826002028217905092915050565b610c3a826105e1565b67ffffffffffffffff811115610c5357610c52610853565b5b610c5d8254610a54565b610c68828285610ba4565b600060209050601f831160018114610c9b5760008415610c89578287015190505b610c938582610c15565b865550610cfb565b601f198416610ca986610a85565b60005b82811015610cd157848901518255600182019150602085019450602081019050610cac565b86831015610cee5784890151610cea601f891682610bf7565b8355505b6001600288020188555050505b505050505050565b7f706f737420616464656400000000000000000000000000000000000000000000600082015250565b6000610d39600a836105ec565b9150610d4482610d03565b602082019050919050565b60006020820190508181036000830152610d6881610d2c565b905091905056fea2646970667358221220700fc94d86c41320b8065e67ad9f02a18f47aad2679ee5105cde590da262305364736f6c63430008180033",
  "linkReferences": {},
  "deployedLinkReferences": {}
}